{
  "_format": "hh-sol-artifact-1",
  "contractName": "Payment",
  "sourceName": "contracts/Payment.sol",
  "abi": [
    {
      "anonymous": false,
      "inputs": [
        {
          "indexed": true,
          "internalType": "address",
          "name": "payer",
          "type": "address"
        },
        {
          "indexed": false,
          "internalType": "uint256",
          "name": "amount",
          "type": "uint256"
        }
      ],
      "name": "Paid",
      "type": "event"
    },
    {
      "inputs": [],
      "name": "getBalance",
      "outputs": [
        {
          "internalType": "uint256",
          "name": "",
          "type": "uint256"
        }
      ],
      "stateMutability": "view",
      "type": "function"
    },
    {
      "inputs": [],
      "name": "pay",
      "outputs": [],
      "stateMutability": "payable",
      "type": "function"
    }
  ],
  "bytecode": "0x6080604052348015600f57600080fd5b506101e58061001f6000396000f3fe6080604052600436106100295760003560e01c806312065fe01461002e5780631b9265b814610059575b600080fd5b34801561003a57600080fd5b50610043610063565b6040516100509190610117565b60405180910390f35b61006161006b565b005b600047905090565b600034116100ae576040517f08c379a00000000000000000000000000000000000000000000000000000000081526004016100a59061018f565b60405180910390fd5b3373ffffffffffffffffffffffffffffffffffffffff167f737c69225d647e5994eab1a6c301bf6d9232beb2759ae1e27a8966b4732bc489346040516100f49190610117565b60405180910390a2565b6000819050919050565b610111816100fe565b82525050565b600060208201905061012c6000830184610108565b92915050565b600082825260208201905092915050565b7f4d7573742073656e642045544800000000000000000000000000000000000000600082015250565b6000610179600d83610132565b915061018482610143565b602082019050919050565b600060208201905081810360008301526101a88161016c565b905091905056fea2646970667358221220a46759f9c344c39df66ccee3aef414e1789c4e8becf34ace24e9c0c4bf639ab164736f6c634300081c0033",
  "linkReferences": {},
  "deployedLinkReferences": {}
}